{
  "contractName": "Cruds",
  "abi": [
    {
      "inputs": [
        {
          "internalType": "string",
          "name": "doc_cid",
          "type": "string"
        }
      ],
      "name": "addDoctor",
      "outputs": [],
      "stateMutability": "nonpayable",
      "type": "function"
    },
    {
      "inputs": [],
      "name": "getDoctor",
      "outputs": [
        {
          "internalType": "string[]",
          "name": "",
          "type": "string[]"
        }
      ],
      "stateMutability": "view",
      "type": "function"
    },
    {
      "inputs": [
        {
          "internalType": "string",
          "name": "patient_cid",
          "type": "string"
        }
      ],
      "name": "addPatient",
      "outputs": [],
      "stateMutability": "nonpayable",
      "type": "function"
    },
    {
      "inputs": [],
      "name": "getPatient",
      "outputs": [
        {
          "internalType": "string[]",
          "name": "",
          "type": "string[]"
        }
      ],
      "stateMutability": "view",
      "type": "function"
    }
  ],
  "bytecode": "0x608060405234801561000f575f80fd5b50610b308061001d5f395ff3fe608060405234801561000f575f80fd5b506004361061004a575f3560e01c80630be617001461004e5780633aaa59201461006a5780637b0f9a3614610088578063fb87cf94146100a6575b5f80fd5b610068600480360381019061006391906105eb565b6100c2565b005b6100726101db565b60405161007f9190610767565b60405180910390f35b6100906102ae565b60405161009d9190610767565b60405180910390f35b6100c060048036038101906100bb91906105eb565b610382565b005b5f5b5f805490508110156101a5575f8082815481106100e4576100e3610787565b5b905f5260205f200180546100f7906107e1565b80601f0160208091040260200160405190810160405280929190818152602001828054610123906107e1565b801561016e5780601f106101455761010080835404028352916020019161016e565b820191905f5260205f20905b81548152906001019060200180831161015157829003601f168201915b5050505050905082805190602001208180519060200120036101915750506101d8565b50808061019d90610847565b9150506100c4565b505f81908060018154018082558091505060019003905f5260205f20015f9091909190915090816101d69190610a2b565b505b50565b60605f805480602002602001604051908101604052809291908181526020015f905b828210156102a5578382905f5260205f2001805461021a906107e1565b80601f0160208091040260200160405190810160405280929190818152602001828054610246906107e1565b80156102915780601f1061026857610100808354040283529160200191610291565b820191905f5260205f20905b81548152906001019060200180831161027457829003601f168201915b5050505050815260200190600101906101fd565b50505050905090565b60606001805480602002602001604051908101604052809291908181526020015f905b82821015610379578382905f5260205f200180546102ee906107e1565b80601f016020809104026020016040519081016040528092919081815260200182805461031a906107e1565b80156103655780601f1061033c57610100808354040283529160200191610365565b820191905f5260205f20905b81548152906001019060200180831161034857829003601f168201915b5050505050815260200190600101906102d1565b50505050905090565b5f5b600180549050811015610467575f600182815481106103a6576103a5610787565b5b905f5260205f200180546103b9906107e1565b80601f01602080910402602001604051908101604052809291908181526020018280546103e5906107e1565b80156104305780601f1061040757610100808354040283529160200191610430565b820191905f5260205f20905b81548152906001019060200180831161041357829003601f168201915b50505050509050828051906020012081805190602001200361045357505061049b565b50808061045f90610847565b915050610384565b50600181908060018154018082558091505060019003905f5260205f20015f9091909190915090816104999190610a2b565b505b50565b5f604051905090565b5f80fd5b5f80fd5b5f80fd5b5f80fd5b5f601f19601f8301169050919050565b7f4e487b71000000000000000000000000000000000000000000000000000000005f52604160045260245ffd5b6104fd826104b7565b810181811067ffffffffffffffff8211171561051c5761051b6104c7565b5b80604052505050565b5f61052e61049e565b905061053a82826104f4565b919050565b5f67ffffffffffffffff821115610559576105586104c7565b5b610562826104b7565b9050602081019050919050565b828183375f83830152505050565b5f61058f61058a8461053f565b610525565b9050828152602081018484840111156105ab576105aa6104b3565b5b6105b684828561056f565b509392505050565b5f82601f8301126105d2576105d16104af565b5b81356105e284826020860161057d565b91505092915050565b5f60208284031215610600576105ff6104a7565b5b5f82013567ffffffffffffffff81111561061d5761061c6104ab565b5b610629848285016105be565b91505092915050565b5f81519050919050565b5f82825260208201905092915050565b5f819050602082019050919050565b5f81519050919050565b5f82825260208201905092915050565b5f5b83811015610692578082015181840152602081019050610677565b5f8484015250505050565b5f6106a78261065b565b6106b18185610665565b93506106c1818560208601610675565b6106ca816104b7565b840191505092915050565b5f6106e0838361069d565b905092915050565b5f602082019050919050565b5f6106fe82610632565b610708818561063c565b93508360208202850161071a8561064c565b805f5b85811015610755578484038952815161073685826106d5565b9450610741836106e8565b925060208a0199505060018101905061071d565b50829750879550505050505092915050565b5f6020820190508181035f83015261077f81846106f4565b905092915050565b7f4e487b71000000000000000000000000000000000000000000000000000000005f52603260045260245ffd5b7f4e487b71000000000000000000000000000000000000000000000000000000005f52602260045260245ffd5b5f60028204905060018216806107f857607f821691505b60208210810361080b5761080a6107b4565b5b50919050565b7f4e487b71000000000000000000000000000000000000000000000000000000005f52601160045260245ffd5b5f819050919050565b5f6108518261083e565b91507fffffffffffffffffffffffffffffffffffffffffffffffffffffffffffffffff820361088357610882610811565b5b600182019050919050565b5f819050815f5260205f209050919050565b5f6020601f8301049050919050565b5f82821b905092915050565b5f600883026108ea7fffffffffffffffffffffffffffffffffffffffffffffffffffffffffffffffff826108af565b6108f486836108af565b95508019841693508086168417925050509392505050565b5f819050919050565b5f61092f61092a6109258461083e565b61090c565b61083e565b9050919050565b5f819050919050565b61094883610915565b61095c61095482610936565b8484546108bb565b825550505050565b5f90565b610970610964565b61097b81848461093f565b505050565b5b8181101561099e576109935f82610968565b600181019050610981565b5050565b601f8211156109e3576109b48161088e565b6109bd846108a0565b810160208510156109cc578190505b6109e06109d8856108a0565b830182610980565b50505b505050565b5f82821c905092915050565b5f610a035f19846008026109e8565b1980831691505092915050565b5f610a1b83836109f4565b9150826002028217905092915050565b610a348261065b565b67ffffffffffffffff811115610a4d57610a4c6104c7565b5b610a5782546107e1565b610a628282856109a2565b5f60209050601f831160018114610a93575f8415610a81578287015190505b610a8b8582610a10565b865550610af2565b601f198416610aa18661088e565b5f5b82811015610ac857848901518255600182019150602085019450602081019050610aa3565b86831015610ae55784890151610ae1601f8916826109f4565b8355505b6001600288020188555050505b50505050505056fea2646970667358221220205b25ab00c8dd43336714ae2c6f0cd1c4b0cc7830ac63b0f25fd73e8d06ff0464736f6c63430008150033",
  "immutableReferences": {},
  "source": "// SPDX-License-Identifier: MIT\r\npragma solidity ^0.8.19;\r\n\r\ncontract Cruds {\r\n    string[] doctors;\r\n    string[] patients;\r\n\r\n    function addDoctor(string memory doc_cid) public {\r\n        for (uint i = 0; i < doctors.length; i++) {\r\n            string memory x = doctors[i];\r\n            if (keccak256(bytes(x)) == keccak256(bytes(doc_cid))) return;\r\n        }\r\n        doctors.push(doc_cid);\r\n    }\r\n\r\n    function getDoctor() public view returns (string[] memory) {\r\n        return doctors;\r\n    }\r\n\r\n    function addPatient(string memory patient_cid) public {\r\n        for (uint i = 0; i < patients.length; i++) {\r\n            string memory x = patients[i];\r\n            if (keccak256(bytes(x)) == keccak256(bytes(patient_cid))) return;\r\n        }\r\n        patients.push(patient_cid);\r\n    }\r\n\r\n    function getPatient() public view returns (string[] memory) {\r\n        return patients;\r\n    }\r\n}",
  "sourcePath": "D:\\hackathon\\MediVault\\backend\\contracts\\Cruds.sol",
  "compiler": {
    "name": "solc",
    "version": "0.8.21+commit.d9974bed.Emscripten.clang"
  },
  "schemaVersion": "3.4.16",
  "updatedAt": "2024-02-23T19:05:30.889Z",
  "devdoc": {
    "kind": "dev",
    "methods": {},
    "version": 1
  },
  "userdoc": {
    "kind": "user",
    "methods": {},
    "version": 1
  }
}